:020000040800F2
:1000000000280020011300084104000843040008F0
:1000100045040008470400084904000800000000E7
:100020000000000000000000000000004B04000879
:100030004D040008000000004F04000851040008AF
:100040004913000849130008491300084913000820
:100050004913000849130008491300084913000810
:100060004913000849130008491300084913000800
:1000700049130008491300084913000849130008F0
:1000800049130008491300084913000849130008E0
:1000900049130008491300084913000849130008D0
:1000A00049130008491300084913000849130008C0
:1000B0005904000849130008000000004913000813
:1000C0004913000800000000000000004913000868
:1000D0000000000049130008491300080000000058
:1000E00049130008491300084913000800000000E4
:1000F0000000000000000000000000000000000000
:0C01000000000000000000005FF808F1A3
:10010C0010B5054C237833B9044B13B10448AFF345
:10011C0000800123237010BD20000020000000008F
:10012C00A413000808B5034B1BB103490348AFF3F4
:10013C00008008BD0000000024000020A41300086B
:10014C002DE9F04186B000240294039404940594A4
:10015C001F4B9A6942F004029A619A6902F00402F8
:10016C000092009A9A6942F008029A619B6903F026
:10017C0008030193019B174D22464FF474712846D6
:10018C0001F03AF801222021284601F035F8124EF0
:10019C0022467F21304601F02FF84FF47C730293F6
:1001AC004FF00108CDF80C8004940227059702A9A2
:1001BC00284600F011FF7F230293CDF80C800494A5
:1001CC00059702A9304600F007FF06B0BDE8F081A4
:1001DC000010024000080140000C014008B500224C
:1001EC004FF470711E4801F007F81E4B1B68032B6F
:1001FC000ED8DFE803F0020E1A270122402118481E
:10020C0000F0FAFF012000F0D5F8164B01221A601D
:10021C0008BD01228021124800F0EEFF022000F000
:10022C00C9F8104B02221A60F2E701224FF48071D8
:10023C000B4800F0E1FF032000F0BCF8094B03224F
:10024C001A60E5E701224FF40071054800F0D4FF75
:10025C00002000F0AFF8034B00221A60D8E700BF73
:10026C00000801403C00002008B50368B3F1804F42
:10027C0000D008BD00F0C4F80F4B1B68012B0ED04A
:10028C000D4B5B68012BF4D1FFF7A8FF4FF4FA710B
:10029C00012000F0A1F8084B00225A60E9E7102178
:1002AC00064800F0AFFF4FF4FA71002000F094F80C
:1002BC00014B00221A60E3E788000020000801408F
:1002CC0072B6FEE700B587B0002302930393049344
:1002DC0005930093019314484FF08042026041F65D
:1002EC003F72426083600922C2600361836100F047
:1002FC003FFA90B94FF48053029302A90A4800F0D8
:10030C006FFA60B90023009301936946064800F028
:10031C00E7FA30B907B05DF804FBFFF7D1FFFFF740
:10032C00CFFFFFF7CDFF00BF4000002000B591B01C
:10033C002822002106A801F027F80023019302933C
:10034C000393049305930223069301230A9310232A
:10035C000B9306A800F058FB68B90F2301930021FA
:10036C00029103910491059101A800F07FFD20B941
:10037C0011B05DF804FBFFF7A3FFFFF7A1FF00002E
:10038C0008B500F007FBFFF7D1FFFFF7D9FEFFF729
:10039C0099FF074800F0CEF84FF4FA71002000F0F6
:1003AC001BF84FF4FA71012000F016F8FEE700BFBD
:1003BC004000002009280AD8054AD36823F07F039F
:1003CC001B041B0C034931F810100B43D36070470E
:1003DC00000C014000000020064B83FB0123C917D1
:1003EC00C1EBA301044B43F82010044B002243F84B
:1003FC002020704767666666B000002088000020E9
:10040C00002300E00133012B0FDC084A52F82320B3
:10041C00002AF7DD013A054941F82320002AF1DCD6
:10042C00034A012142F82310ECE77047B00000208A
:10043C0088000020FEE7FEE7FEE7FEE7FEE77047D8
:10044C007047704708B500F0B7FA08BD08B5024808
:10045C0000F0A4F808BD00BF4000002082B00E4B95
:10046C009A6942F001029A619A6902F001020092C3
:10047C00009ADA6942F08052DA61DB6903F080534A
:10048C000193019B054A536823F0E06343F000732A
:10049C00536002B0704700BF0010024000000140E2
:1004AC000368B3F1804F00D0704700B583B003F5FB
:1004BC000433DA6942F00102DA61DB6903F001030B
:1004CC000193019B002211461C2000F0B7FE1C205A
:1004DC0000F0ECFE03B05DF804FB10B4036A046A90
:1004EC0024F001040462846924F0F00C4CEA02123A
:1004FC0023F00A030B438261036210BC704710B4F3
:10050C00036A046A24F010040462846924F4704CB5
:10051C004CEA023223F0A00343EA01138261036226
:10052C0010BC7047836823F070030B4343F0070340
:10053C008360704790F83D30DBB2012B23D102234E
:10054C0080F83D300268D36843F00103D360036840
:10055C000F4A93420CD0B3F1804F09D0A2F59432DC
:10056C00934205D01A6842F001021A6000207047CD
:10057C009A6802F00702062A07D01A6842F00102B4
:10058C001A6000207047012070470020704700BFA0
:10059C00002C0140704770477047704770B5044697
:1005AC000368DE681D6915F0020F10D016F0020FFB
:1005BC000DD06FF002021A610123037703689B6967
:1005CC0013F0030F5ED0FFF7E6FF0023237715F03F
:1005DC00040F12D016F0040F0FD023686FF0040232
:1005EC001A610223237723689B6913F4407F4FD051
:1005FC002046FFF7D0FF0023237715F0080F12D009
:10060C0016F0080F0FD023686FF008021A6104234C
:10061C0023772368DB6913F0030F40D02046FFF7E4
:10062C00BAFF0023237715F0100F12D016F0100F1D
:10063C000FD023686FF010021A6108232377236808
:10064C00DB6913F4407F31D02046FFF7A4FF002371
:10065C00237715F0010F02D016F0010F2DD115F0F4
:10066C00800F02D016F0800F2FD115F0400F02D062
:10067C0016F0400F31D115F0200F02D016F0200FDC
:10068C0033D170BDFFF786FF2046FFF785FF9CE74F
:10069C002046FFF77FFF2046FFF77EFFABE72046A3
:1006AC00FFF778FF2046FFF777FFBAE72046FFF702
:1006BC0071FF2046FFF770FFC9E723686FF0010256
:1006CC001A612046FFF7D0FDC9E723686FF080025E
:1006DC001A61204600F037F9C7E723686FF0400233
:1006EC001A612046FFF759FFC5E723686FF0200217
:1006FC001A61204600F026F9C3E7000003681B4A84
:10070C00904206D0B0F1804F03D0A2F594329042C3
:10071C0003D123F070034A681343144A904206D065
:10072C00B0F1804F03D0A2F59432904203D123F460
:10073C004073CA68134323F080034A691343036070
:10074C008B68C3620B688362084B98420AD0012302
:10075C004361036913F0010F03D0036923F0010314
:10076C00036170470B690363F1E700BF002C014084
:10077C0040B310B5044690F83D30F3B1022384F831
:10078C003D30214651F8040BFFF7B8FF012384F8E4
:10079C00463084F83E3084F83F3084F8403084F89A
:1007AC00413084F8423084F8433084F8443084F883
:1007BC00453084F83D30002010BD80F83C30FFF708
:1007CC006FFEDBE70120704710B4846824F47F4C83
:1007DC0042EA03220A4342EA0C02826010BC7047D0
:1007EC0090F83C30012B78D010B50446012380F8EA
:1007FC003C30022380F83D300268936823F47F4339
:10080C0023F0770393600B68602B4CD029D8402BD6
:10081C0054D00CD9502B22D1CA6849680068FFF714
:10082C005CFE50212068FFF77DFE002005E0202BA8
:10083C000DD009D9302B0AD00120012384F83D308A
:10084C00002384F83C3010BD0BB1102B05D1194698
:10085C002068FFF767FE0020EFE70120EDE701209D
:10086C00EBE7B3F5805F34D0B3F5005F0CD1CB6808
:10087C004A6889680068FFF7A7FF2268936843F409
:10088C00804393600020D8E7702B24D1CB684A6852
:10089C0089680068FFF798FF2268936843F0770334
:1008AC0093600020C9E7CA6849680068FFF727FE13
:1008BC0060212068FFF736FE0020BEE7CA68496851
:1008CC000068FFF70AFE40212068FFF72BFE00208E
:1008DC00B3E70020B1E70120AFE70220704700002A
:1008EC0090F83C30012B28D010B4012380F83C3018
:1008FC00022380F83D3003685A689C6822F0700C23
:10090C000A6842EA0C025A6003680D4A934206D008
:10091C00B3F1804F03D0A2F59432934204D124F06A
:10092C0080044A6814439C60012380F83D30002306
:10093C0080F83C30184610BC70470220704700BF4E
:10094C00002C01407047704710B504460E4B1878C8
:10095C004FF47A73B3FBF0F30C4A1068B0FBF3F06E
:10096C0000F0B2FC68B90F2C01D901200AE000227A
:10097C0021464FF0FF3000F061FC054B1C6000205D
:10098C0000E0012010BD00BF140000201C0000205E
:10099C001800002008B5074A136843F010031360D1
:1009AC00032000F039FC0F20FFF7CEFFFFF756FDB8
:1009BC00002008BD00200240034A1168034B1B783D
:1009CC000B441360704700BFD800002014000020B7
:1009DC00014B1868704700BFD800002082B0084B4C
:1009EC001B68084AA2FB03235B0A00FB03F3019379
:1009FC0000BF019B5A1E0192002BF9D102B0704727
:100A0C001C000020D34D6210002800F0F18170B55D
:100A1C0082B00446036813F0010F2CD0994B5B682D
:100A2C0003F00C03042B1DD0964B5B6803F00C03F6
:100A3C00082B12D06368B3F5803F41D0002B55D101
:100A4C0003F1804303F504331A6822F480321A60F0
:100A5C001A6822F480221A6037E08A4B5B6813F420
:100A6C00803FE7D0874B1B6813F4003F03D06368CB
:100A7C00002B00F0BF81236813F0020F75D0814B5F
:100A8C005B6813F00C0F5FD07E4B5B6803F00C03BC
:100A9C00082B54D02369002B00F08A807A4B01225A
:100AAC001A60FFF795FF0546764B1B6813F0020F93
:100ABC0075D1FFF78DFF401B0228F5D903209EE16D
:100ACC00704A136843F480331360636843B3FFF7D1
:100ADC007FFF05466B4B1B6813F4003FCBD1FFF730
:100AEC0077FF401B6428F5D9032088E1B3F5A02FCC
:100AFC0009D0644B1A6822F480321A601A6822F406
:100B0C0080221A60E1E703F18043A3F53C331A68B5
:100B1C0042F480221A601A6842F480321A60D4E7D8
:100B2C00FFF756FF0546574B1B6813F4003FA2D046
:100B3C00FFF74EFF401B6428F5D903205FE1514BB2
:100B4C005B6813F4803FA5D14E4B1B6813F0020F6A
:100B5C0003D02369012B40F04F814A4A136823F0DC
:100B6C00F803616943EAC1031360236813F0080FAB
:100B7C0033D0A369002B5CD0434B0122C3F88024F3
:100B8C00FFF726FF05463F4B5B6A13F0020F21D19E
:100B9C00FFF71EFF401B0228F5D903202FE1394A2D
:100BAC00136823F0F803616943EAC1031360DCE7BF
:100BBC00354B00221A60FFF70BFF0546314B1B68C3
:100BCC0013F0020FD1D0FFF703FF401B0228F5D919
:100BDC00032014E10120FFF701FF236813F0040F39
:100BEC0000F09680274BDB6913F0805F34D1254BE6
:100BFC00DA6942F08052DA61DB6903F080530193C9
:100C0C00019B0125214B1B6813F4807F26D0E368E0
:100C1C00012B3DD0002B53D103F1804303F504335A
:100C2C001A6A22F001021A621A6A22F004021A628B
:100C3C0033E0154B0022C3F88024FFF7C9FE0546AC
:100C4C00104B5B6A13F0020FC7D0FFF7C1FE401BBD
:100C5C000228F5D90320D2E00025D3E70B4A13680C
:100C6C0043F480731360FFF7B3FE0646074B1B6813
:100C7C0013F4807FCBD1FFF7ABFE801B6428F5D932
:100C8C000320BCE000100240000042420070004013
:100C9C005F4A136A43F001031362E36833B3FFF74F
:100CAC0097FE06465A4B1B6A13F0020F2FD1FFF723
:100CBC008FFE801B41F288339842F3D903209EE0CB
:100CCC00052B09D0524B1A6A22F001021A621A6AD9
:100CDC0022F004021A62E0E74D4B1A6A42F0040259
:100CEC001A621A6A42F001021A62D6E7FFF770FE26
:100CFC000646474B1B6A13F0020F08D0FFF768FE3D
:100D0C00801B41F288339842F3D9032077E0E5B990
:100D1C00E369002B72D03E4A526802F00C02082A9A
:100D2C0056D0022B17D03B4B00221A66FFF750FE11
:100D3C000446374B1B6813F0007F47D0FFF748FE83
:100D4C00001B0228F5D9032059E0314AD36923F05E
:100D5C008053D361DCE72F4B00221A66FFF738FE75
:100D6C0005462B4B1B6813F0007F06D0FFF730FEB7
:100D7C00401B0228F5D9032041E0236AB3F5803FDC
:100D8C001AD023494B6823F47413226A606A024315
:100D9C0013434B601F4B01221A66FFF719FE0446E2
:100DAC001B4B1B6813F0007F0ED1FFF711FE001BCD
:100DBC000228F5D9032022E0154A536823F40033A6
:100DCC00A1680B435360DCE7002018E0002016E01C
:100DDC00012B16D00E4B5B6803F48031226A9142D2
:100DEC0011D103F47013626A93420ED1002006E015
:100DFC0001207047012002E0012000E0002002B039
:100E0C0070BD0120FBE70120F9E70120F7E700BFE7
:100E1C0000100240000042420F4B5B6803F00C02D2
:100E2C00082A01D00D487047C3F383420C49885CF3
:100E3C0013F4803F0BD0084B5B68C3F34043094A63
:100E4C00D35C064A02FB00F0B0FBF3F07047064B94
:100E5C0003FB00F0704700BF0010024000127A0044
:100E6C00BC130008CC13000800093D00002800F05A
:100E7C00A08070B50D460446524B1B6803F0070367
:100E8C008B420BD24F4A136823F007030B431360BA
:100E9C00136803F007038B4240F08D80236813F036
:100EAC00020F17D013F0040F04D0474A536843F4D1
:100EBC00E0635360236813F0080F04D0424A536870
:100ECC0043F460535360404A536823F0F003A16825
:100EDC000B435360236813F0010F31D06368012B6F
:100EEC0020D0022B25D0384A126812F0020F64D0A1
:100EFC0035494A6822F0030213434B60FFF768FD43
:100F0C000646314B5B6803F00C036268B3EB820F4F
:100F1C0016D0FFF75DFD801B41F288339842F0D963
:100F2C00032045E0284A126812F4003FE0D101206A
:100F3C003EE0254A126812F0007FD9D1012037E03B
:100F4C00204B1B6803F00703AB420AD91D4A1368F8
:100F5C0023F007032B431360136803F00703AB4222
:100F6C002DD1236813F0040F06D0174A536823F4CD
:100F7C00E063E1680B435360236813F0080F07D05C
:100F8C00114A536823F46053216943EAC103536047
:100F9C00FFF742FF0C4B5B68C3F303130B4AD35CA4
:100FAC00D8400B4B18600B4B1868FFF7CDFC00209A
:100FBC0070BD012070470120FAE70120F8E70120FD
:100FCC00F6E700BF0020024000100240D0130008DA
:100FDC001C0000201800002070B582B00024A4462C
:100FEC008BE07F4DAA4210D007D97E4DAA420CD07F
:100FFC0005F58035AA4208D015E0A5F58015AA4262
:10100C0003D005F57025AA4209D18A68002A00F0A0
:10101C00BF80012A00F0B7804361082403E0A5F5E6
:10102C008015AA42F1D0BEF1FF0F00F2B380064644
:10103C00BEF1FF0F00F2B0804FEA8C0233680F252F
:10104C00954023EA050304FA02F2134333604B681C
:10105C0013F0805F4FD0644B9A6942F001029A61A1
:10106C009B6903F001030193019B4FEA9C02951CC1
:10107C005E4B53F825600CF003039D000F23AB402F
:10108C0026EA03065A4B984200F08C8003F58063E5
:10109C00984200F0898003F58063984200F08080CC
:1010AC000323AB4033430232504D45F822304B689A
:1010BC0013F4801F7AD04F4A936843EA0E0393606F
:1010CC004B6813F4001F77D04A4AD36843EA0E03E7
:1010DC00D3604B6813F4003F74D0464A536843EA1C
:1010EC000E0353604B6813F4803F71D0414A136870
:1010FC0043EA0E0313600CF1010C0A6832FA0CF38C
:10110C006CD0012303FA0CF302EA030E33EA020259
:10111C00F1D14A68122A3FF664AF122A83D801A58E
:10112C0055F822F0171000087D11000887110008EF
:10113C009911000833100008331000083310000810
:10114C003310000833100008331000083310000867
:10115C003310000833100008331000083310000857
:10116C003310000833100008811100088D1100089D
:10117C00CC6858E7CC68043455E7CC68083452E79F
:10118C00CC680C344FE7036108244CE700244AE791
:10119C00042448E7061D4BE7ACF1080292004DE72A
:1011AC0002237EE700237CE701237AE7114A936848
:1011BC0023EA0E03936083E70E4AD36823EA0E03F7
:1011CC00D36086E70B4A536823EA0E03536089E722
:1011DC00084A136823EA0E0313608CE702B070BD53
:1011EC0000002210000031100010024000000140ED
:1011FC0000080140000401400AB101617047090474
:10120C0001617047C36801EA030221EA030141EA64
:10121C000241016170470000074AD36823F4E06380
:10122C001B041B0C000200F4E060034343F0BF639B
:10123C0043F40033D360704700ED00E000B5194B68
:10124C00DB68C3F30223C3F1070CBCF1040F28BF06
:10125C004FF0040C03F1040EBEF1060F18D9033B3A
:10126C004FF0FF3E0EFA0CFC21EA0C0199400EFAED
:10127C0003F322EA0303194300280BDB0901C9B26B
:10128C0000F1604000F5614080F800135DF804FB4C
:10129C000023E5E700F00F000901C9B2024B195415
:1012AC00F4E700BF00ED00E014ED00E0002807DBE0
:1012BC0000F01F02400901239340024A42F82030FB
:1012CC00704700BF00E100E00138B0F1807F0BD225
:1012DC004FF0E0235861054AF02182F823100020DA
:1012EC00986107221A6170470120704700ED00E0F9
:1012FC0070470000FFF7FCFF0B480C490C4A002319
:10130C0002E0D458C4500433C4188C42F9D3094AAF
:10131C00094C002301E013600432A242FBD300F01D
:10132C000FF8FFF72DF87047000000202000002078
:10133C00E813000820000020DC000020FEE700007D
:10134C0070B500260C4D0D4C641BA410A64209D19F
:10135C0000F022F800260A4D0A4C641BA410A64289
:10136C0005D170BD55F8043B98470136EEE755F8AA
:10137C00043B98470136F2E7E0130008E01300083D
:10138C00E0130008E413000803460244934200D122
:10139C00704703F8011BF9E7F8B500BFF8BC08BCAF
:1013AC009E467047F8B500BFF8BC08BC9E46704717
:1013BC0002030405060708090A0B0C0D0E0F10108A
:1013CC000102000000000000000000000102030404
:0413DC0006070809EF
:0413E00031010008CF
:0413E4000D010008EF
:1013E800C000F900A400B000990092008200F80043
:1013F80080009000010000001000000000127A0038
:0400000508001301DB
:00000001FF
